{
  "_format": "hh-sol-artifact-1",
  "contractName": "Ntoboa",
  "sourceName": "contracts/Ntoboa.sol",
  "abi": [
    {
      "inputs": [
        {
          "internalType": "bytes32",
          "name": "id",
          "type": "bytes32"
        }
      ],
      "name": "CharityDoesNotExist",
      "type": "error"
    },
    {
      "inputs": [
        {
          "internalType": "uint256",
          "name": "balance",
          "type": "uint256"
        },
        {
          "internalType": "uint256",
          "name": "amount",
          "type": "uint256"
        }
      ],
      "name": "InsufficientBalance",
      "type": "error"
    },
    {
      "inputs": [],
      "name": "InvalidTarget",
      "type": "error"
    },
    {
      "inputs": [
        {
          "internalType": "address",
          "name": "caller",
          "type": "address"
        },
        {
          "internalType": "address",
          "name": "owner",
          "type": "address"
        }
      ],
      "name": "NotCharityOwner",
      "type": "error"
    },
    {
      "anonymous": false,
      "inputs": [
        {
          "indexed": true,
          "internalType": "bytes32",
          "name": "id",
          "type": "bytes32"
        },
        {
          "indexed": false,
          "internalType": "string",
          "name": "name",
          "type": "string"
        },
        {
          "indexed": false,
          "internalType": "string",
          "name": "description",
          "type": "string"
        },
        {
          "indexed": false,
          "internalType": "uint256",
          "name": "target",
          "type": "uint256"
        },
        {
          "indexed": false,
          "internalType": "address",
          "name": "owner",
          "type": "address"
        }
      ],
      "name": "CharityCreated",
      "type": "event"
    },
    {
      "anonymous": false,
      "inputs": [
        {
          "indexed": true,
          "internalType": "bytes32",
          "name": "charityId",
          "type": "bytes32"
        },
        {
          "indexed": true,
          "internalType": "address",
          "name": "donor",
          "type": "address"
        },
        {
          "indexed": false,
          "internalType": "uint256",
          "name": "amount",
          "type": "uint256"
        }
      ],
      "name": "DonationReceived",
      "type": "event"
    },
    {
      "anonymous": false,
      "inputs": [
        {
          "indexed": false,
          "internalType": "address",
          "name": "sender",
          "type": "address"
        },
        {
          "indexed": false,
          "internalType": "uint256",
          "name": "amount",
          "type": "uint256"
        }
      ],
      "name": "EtherReceived",
      "type": "event"
    },
    {
      "anonymous": false,
      "inputs": [
        {
          "indexed": true,
          "internalType": "bytes32",
          "name": "charityId",
          "type": "bytes32"
        },
        {
          "indexed": true,
          "internalType": "address",
          "name": "owner",
          "type": "address"
        },
        {
          "indexed": false,
          "internalType": "uint256",
          "name": "amount",
          "type": "uint256"
        }
      ],
      "name": "WithdrawalMade",
      "type": "event"
    },
    {
      "inputs": [
        {
          "internalType": "string",
          "name": "name",
          "type": "string"
        },
        {
          "internalType": "string",
          "name": "description",
          "type": "string"
        },
        {
          "internalType": "uint256",
          "name": "_target",
          "type": "uint256"
        }
      ],
      "name": "addCharity",
      "outputs": [],
      "stateMutability": "nonpayable",
      "type": "function"
    },
    {
      "inputs": [
        {
          "internalType": "bytes32",
          "name": "",
          "type": "bytes32"
        }
      ],
      "name": "charities",
      "outputs": [
        {
          "internalType": "string",
          "name": "name",
          "type": "string"
        },
        {
          "internalType": "string",
          "name": "description",
          "type": "string"
        },
        {
          "internalType": "uint256",
          "name": "target",
          "type": "uint256"
        },
        {
          "internalType": "uint256",
          "name": "amountRaised",
          "type": "uint256"
        },
        {
          "internalType": "address",
          "name": "owner",
          "type": "address"
        },
        {
          "internalType": "bool",
          "name": "exists",
          "type": "bool"
        }
      ],
      "stateMutability": "view",
      "type": "function"
    },
    {
      "inputs": [
        {
          "internalType": "bytes32",
          "name": "_id",
          "type": "bytes32"
        }
      ],
      "name": "donate",
      "outputs": [],
      "stateMutability": "payable",
      "type": "function"
    },
    {
      "inputs": [
        {
          "internalType": "bytes32",
          "name": "_id",
          "type": "bytes32"
        }
      ],
      "name": "getBalanceOf",
      "outputs": [
        {
          "internalType": "uint256",
          "name": "",
          "type": "uint256"
        }
      ],
      "stateMutability": "view",
      "type": "function"
    },
    {
      "inputs": [],
      "name": "totalAmountRaised",
      "outputs": [
        {
          "internalType": "uint256",
          "name": "",
          "type": "uint256"
        }
      ],
      "stateMutability": "view",
      "type": "function"
    },
    {
      "inputs": [
        {
          "internalType": "bytes32",
          "name": "_id",
          "type": "bytes32"
        }
      ],
      "name": "withdraw",
      "outputs": [],
      "stateMutability": "nonpayable",
      "type": "function"
    },
    {
      "stateMutability": "payable",
      "type": "receive"
    }
  ],
  "bytecode": "0x6080604052348015600f57600080fd5b506113e08061001f6000396000f3fe6080604052600436106100595760003560e01c8063242d7dba1461009e5780634fb58966146100c95780637f6cc9f1146101065780638e19899e1461012f578063c37067fa14610158578063e139d8c61461017457610099565b36610099577f1e57e3bb474320be3d2c77138f75b7c3941292d647f5f9634e33a8e94e0e069b333460405161008f929190610a73565b60405180910390a1005b600080fd5b3480156100aa57600080fd5b506100b36101b6565b6040516100c09190610a9c565b60405180910390f35b3480156100d557600080fd5b506100f060048036038101906100eb9190610af7565b6101bc565b6040516100fd9190610a9c565b60405180910390f35b34801561011257600080fd5b5061012d60048036038101906101289190610bb5565b610243565b005b34801561013b57600080fd5b5061015660048036038101906101519190610af7565b610464565b005b610172600480360381019061016d9190610af7565b61071e565b005b34801561018057600080fd5b5061019b60048036038101906101969190610af7565b610864565b6040516101ad96959493929190610cf5565b60405180910390f35b60005481565b6000816001600082815260200190815260200160002060040160149054906101000a900460ff1661022457806040517f748ef8eb00000000000000000000000000000000000000000000000000000000815260040161021b9190610d73565b60405180910390fd5b6001600084815260200190815260200160002060030154915050919050565b6000810361027d576040517f82d5d76a00000000000000000000000000000000000000000000000000000000815260040160405180910390fd5b600061028c86868686336109dd565b90506040518060c0016040528087878080601f016020809104026020016040519081016040528093929190818152602001838380828437600081840152601f19601f82011690508083019250505050505050815260200185858080601f016020809104026020016040519081016040528093929190818152602001838380828437600081840152601f19601f820116905080830192505050505050508152602001838152602001600081526020013373ffffffffffffffffffffffffffffffffffffffff168152602001600115158152506001600083815260200190815260200160002060008201518160000190816103859190610fc9565b50602082015181600101908161039b9190610fc9565b50604082015181600201556060820151816003015560808201518160040160006101000a81548173ffffffffffffffffffffffffffffffffffffffff021916908373ffffffffffffffffffffffffffffffffffffffff16021790555060a08201518160040160146101000a81548160ff021916908315150217905550905050807f460180e3af7c0f3b01d7f28ae7b4d91a30575c754b09fe112541374f87103ddd878787878733604051610454969594939291906110d7565b60405180910390a2505050505050565b806001600082815260200190815260200160002060040160149054906101000a900460ff166104ca57806040517f748ef8eb0000000000000000000000000000000000000000000000000000000081526004016104c19190610d73565b60405180910390fd5b813373ffffffffffffffffffffffffffffffffffffffff166001600083815260200190815260200160002060040160009054906101000a900473ffffffffffffffffffffffffffffffffffffffff1673ffffffffffffffffffffffffffffffffffffffff16146105a957336001600083815260200190815260200160002060040160009054906101000a900473ffffffffffffffffffffffffffffffffffffffff166040517ffcb07d250000000000000000000000000000000000000000000000000000000081526004016105a092919061112e565b60405180910390fd5b600060016000858152602001908152602001600020905060008160030154905060008103610611576000806040517fcf479181000000000000000000000000000000000000000000000000000000008152600401610608929190611192565b60405180910390fd5b6000826003018190555060003373ffffffffffffffffffffffffffffffffffffffff1682604051610641906111ec565b60006040518083038185875af1925050503d806000811461067e576040519150601f19603f3d011682016040523d82523d6000602084013e610683565b606091505b50509050806106c7576040517f08c379a00000000000000000000000000000000000000000000000000000000081526004016106be9061124d565b60405180910390fd5b3373ffffffffffffffffffffffffffffffffffffffff16867f27f0449bf95aca9b5dd60ca36171bc0fad8cde23b868a42ac7b8f2768df10bbb8460405161070e9190610a9c565b60405180910390a3505050505050565b806001600082815260200190815260200160002060040160149054906101000a900460ff1661078457806040517f748ef8eb00000000000000000000000000000000000000000000000000000000815260040161077b9190610d73565b60405180910390fd5b600034036107cc573460006040517fcf4791810000000000000000000000000000000000000000000000000000000081526004016107c392919061126d565b60405180910390fd5b346000808282546107dd91906112c5565b925050819055503460016000848152602001908152602001600020600301600082825461080a91906112c5565b925050819055503373ffffffffffffffffffffffffffffffffffffffff16827f3c0eff4f142cbce74bccfc168392c83a24f470999e24cef8ae1558fb729effa8346040516108589190610a9c565b60405180910390a35050565b600160205280600052604060002060009150905080600001805461088790610dec565b80601f01602080910402602001604051908101604052809291908181526020018280546108b390610dec565b80156109005780601f106108d557610100808354040283529160200191610900565b820191906000526020600020905b8154815290600101906020018083116108e357829003601f168201915b50505050509080600101805461091590610dec565b80601f016020809104026020016040519081016040528092919081815260200182805461094190610dec565b801561098e5780601f106109635761010080835404028352916020019161098e565b820191906000526020600020905b81548152906001019060200180831161097157829003601f168201915b5050505050908060020154908060030154908060040160009054906101000a900473ffffffffffffffffffffffffffffffffffffffff16908060040160149054906101000a900460ff16905086565b600085858585856040516020016109f8959493929190611371565b60405160208183030381529060405280519060200120905095945050505050565b600073ffffffffffffffffffffffffffffffffffffffff82169050919050565b6000610a4482610a19565b9050919050565b610a5481610a39565b82525050565b6000819050919050565b610a6d81610a5a565b82525050565b6000604082019050610a886000830185610a4b565b610a956020830184610a64565b9392505050565b6000602082019050610ab16000830184610a64565b92915050565b600080fd5b600080fd5b6000819050919050565b610ad481610ac1565b8114610adf57600080fd5b50565b600081359050610af181610acb565b92915050565b600060208284031215610b0d57610b0c610ab7565b5b6000610b1b84828501610ae2565b91505092915050565b600080fd5b600080fd5b600080fd5b60008083601f840112610b4957610b48610b24565b5b8235905067ffffffffffffffff811115610b6657610b65610b29565b5b602083019150836001820283011115610b8257610b81610b2e565b5b9250929050565b610b9281610a5a565b8114610b9d57600080fd5b50565b600081359050610baf81610b89565b92915050565b600080600080600060608688031215610bd157610bd0610ab7565b5b600086013567ffffffffffffffff811115610bef57610bee610abc565b5b610bfb88828901610b33565b9550955050602086013567ffffffffffffffff811115610c1e57610c1d610abc565b5b610c2a88828901610b33565b93509350506040610c3d88828901610ba0565b9150509295509295909350565b600081519050919050565b600082825260208201905092915050565b60005b83811015610c84578082015181840152602081019050610c69565b60008484015250505050565b6000601f19601f8301169050919050565b6000610cac82610c4a565b610cb68185610c55565b9350610cc6818560208601610c66565b610ccf81610c90565b840191505092915050565b60008115159050919050565b610cef81610cda565b82525050565b600060c0820190508181036000830152610d0f8189610ca1565b90508181036020830152610d238188610ca1565b9050610d326040830187610a64565b610d3f6060830186610a64565b610d4c6080830185610a4b565b610d5960a0830184610ce6565b979650505050505050565b610d6d81610ac1565b82525050565b6000602082019050610d886000830184610d64565b92915050565b7f4e487b7100000000000000000000000000000000000000000000000000000000600052604160045260246000fd5b7f4e487b7100000000000000000000000000000000000000000000000000000000600052602260045260246000fd5b60006002820490506001821680610e0457607f821691505b602082108103610e1757610e16610dbd565b5b50919050565b60008190508160005260206000209050919050565b60006020601f8301049050919050565b600082821b905092915050565b600060088302610e7f7fffffffffffffffffffffffffffffffffffffffffffffffffffffffffffffffff82610e42565b610e898683610e42565b95508019841693508086168417925050509392505050565b6000819050919050565b6000610ec6610ec1610ebc84610a5a565b610ea1565b610a5a565b9050919050565b6000819050919050565b610ee083610eab565b610ef4610eec82610ecd565b848454610e4f565b825550505050565b600090565b610f09610efc565b610f14818484610ed7565b505050565b5b81811015610f3857610f2d600082610f01565b600181019050610f1a565b5050565b601f821115610f7d57610f4e81610e1d565b610f5784610e32565b81016020851015610f66578190505b610f7a610f7285610e32565b830182610f19565b50505b505050565b600082821c905092915050565b6000610fa060001984600802610f82565b1980831691505092915050565b6000610fb98383610f8f565b9150826002028217905092915050565b610fd282610c4a565b67ffffffffffffffff811115610feb57610fea610d8e565b5b610ff58254610dec565b611000828285610f3c565b600060209050601f8311600181146110335760008415611021578287015190505b61102b8582610fad565b865550611093565b601f19841661104186610e1d565b60005b8281101561106957848901518255600182019150602085019450602081019050611044565b868310156110865784890151611082601f891682610f8f565b8355505b6001600288020188555050505b505050505050565b82818337600083830152505050565b60006110b68385610c55565b93506110c383858461109b565b6110cc83610c90565b840190509392505050565b600060808201905081810360008301526110f281888a6110aa565b905081810360208301526111078186886110aa565b90506111166040830185610a64565b6111236060830184610a4b565b979650505050505050565b60006040820190506111436000830185610a4b565b6111506020830184610a4b565b9392505050565b6000819050919050565b600061117c61117761117284611157565b610ea1565b610a5a565b9050919050565b61118c81611161565b82525050565b60006040820190506111a76000830185611183565b6111b46020830184611183565b9392505050565b600081905092915050565b50565b60006111d66000836111bb565b91506111e1826111c6565b600082019050919050565b60006111f7826111c9565b9150819050919050565b7f5472616e73666572206661696c65640000000000000000000000000000000000600082015250565b6000611237600f83610c55565b915061124282611201565b602082019050919050565b600060208201905081810360008301526112668161122a565b9050919050565b60006040820190506112826000830185610a64565b61128f6020830184611183565b9392505050565b7f4e487b7100000000000000000000000000000000000000000000000000000000600052601160045260246000fd5b60006112d082610a5a565b91506112db83610a5a565b92508282019050808211156112f3576112f2611296565b5b92915050565b600081905092915050565b600061131083856112f9565b935061131d83858461109b565b82840190509392505050565b60008160601b9050919050565b600061134182611329565b9050919050565b600061135382611336565b9050919050565b61136b61136682610a39565b611348565b82525050565b600061137e828789611304565b915061138b828587611304565b9150611397828461135a565b601482019150819050969550505050505056fea264697066735822122019565cf6150402ba76d9cc541b572f7518ed509a1069dc2337fab0cc4abd527c64736f6c634300081c0033",
  "linkReferences": {},
  "deployedLinkReferences": {}
}